S012000046697273745F4E6F64652E7372656325
S11300000C942A000C9447000C9447000C9447006D
S11300100C9447000C9447000C9447000C94470040
S11300200C9447000C9447000C9447000C94470030
S11300300C9447000C94C7010C9447000C9447009F
S11300400C9447000C9447000C9447000C94470010
S11300500C94470011241FBECFE5D8E0DEBFCDBF0E
S113006020E0A6E6B0E001C01D92A13AB207E1F794
S113007010E0A0E6B0E0EEE9FAE002C005900D92CF
S1130080A636B107D9F70E94C6000C944D050C940E
S1130090000017B887E086B90895379A0895FB01E0
S11300A097B1982B97B9369A3699FECF3D990CC0E3
S11300B024B130E03183208345B1942F80E0822B3A
S11300C0932B91838083089584B190E091838083FE
S11300D025B136E0959587953A95E1F744E0249F5C
S11300E090011124822B932B91838083089583B7ED
S11300F0816083BF83B78D7F83BF83B7846083BFF1
S113010082E782BF08B600FEFDCF13BE81E088BF40
S1130110089583B78E7F83BF83B7826083BF83B71D
S11301208B7F83BF81EE82BF08B600FEFDCF13BE76
S113013081E088BF08958E9A96980E947700969AD7
S113014008958E988699FECF869BFECF8699FECF22
S11301500895CF93DF93C8E0D0E0869BFECF0E9442
S1130160890080916600869B05C090E0880F991FE6
S1130170816001C0880F809366008699FECF219725
S113018061F780916600DF91CF910895CF93DF935B
S1130190CDB7DEB76E970FB6F894DEBF0FBECDBFF6
S11301A00E9449000E944D001E8E1D8E81B3806303
S11301B081BB0E94E3012FEF81EE94E02150804047
S11301C09040E1F700C0000083E890E00E94C10184
S11301D0EFEFF1EE24E0E150F0402040E1F700C001
S11301E000000E94EC018FEF91EEE4E0815090401A
S11301F0E040E1F700C0000078940E9477000E947C
S113020077000E9477000E94770080917700853301
S1130210A1F791E9492E22EE922E3DED832E40E482
S1130220742E52EA652E63E1562E7EEFA72EBB2470
S1130230BA948E010F5E1F4F5798BE01635E7F4FC5
S113024081E00E944F000E949B000E94A1000E9436
S1130250A900E82E0E94A900C82E0E94A900382EE9
S11302600E94A900D82E0E94A900F12CE32DF0E0F1
S113027097012C0D311D2E0F3F1F2D0D311D90E0C8
S113028028173907A1F0949A2FEF84E39CE02150BA
S113029080409040E1F700C0000094982FEF84E381
S11302A09CE0215080409040E1F700C0000049826A
S11302B09A828B827C821D826E825F821886BA86C5
S11302C0A9861C861B864AE050E0B801CF010E9433
S11302D0D10480E2D82EDB8A4AE050E0BE016C5E95
S11302E07F4FC7010E94D104DE8A4AE050E0BE017C
S11302F0695E7F4F8D8D9E8D0E94D104C8010E943E
S11303009C048D879E87F80101900020E9F73197BE
S1130310E01BF10BF88BEF87BE016F5F7F4F81E02D
S11303200E94CE027C018D859E850E94FF03BE0142
S1130330655E7F4FC7010E94F3016C01C7010E94F3
S1130340FF03760115C0F60181916F010E94EF0150
S113035080E006C0E82FF0E0E959FF4F10828F5F7C
S1130360909182008917B0F3109282000E94EC01F0
S113037096012E193F098B8D9C8D2817390718F388
S11303805BCFD29A10928200FC01118E08951F92C5
S11303900F920FB60F9211248F93EF93FF93E09176
S11303A08200F0E08CB1E959FF4F80838091820094
S11303B08F5F80938200FF91EF918F910F900FBE1A
S11303C00F901F9018958AB188618AB980B58668A4
S11303D080BD83E389B90895579A80E008955D9BB1
S11303E0FECF8CB90895BF92CF92DF92EF92FF9225
S11303F00F931F93CF93DF938C016B01DC01119654
S1130400ED90FC901297B4E0EB0EF11CFB01F1822D
S1130410E082C7010E946403B92EC82FD92FA70117
S113042060E070E00E94C304D8018C918883119627
S11304308D919C9112979827892798279A8389836D
S113044013968C9113978B8314968C9114978C83A9
S1130450FE01359611962D913C9112972250310947
S113046017966C91179718967C91A901CF010E9459
S1130470BA04D601ED91FC91EC0FFD1F3197D80120
S113048019968C9180838C2F9B2DDF91CF911F9196
S11304900F91FF90EF90DF90CF90BF900895BF929F
S11304A0CF92DF92EF92FF920F931F93CF93DF933C
S11304B0B62EC72EC82FB92F60E070E080E090E020
S11304C000E20E944603D22EE32EF42E152FD62FDF
S11304D0E72FA82FF92F20E030E040E050E06B2D0B
S11304E07C2D8C2F9B2F0E945503C42FB52F2D29B3
S11304F03E29CF29B12B6D2B7E2BA82BF92B40E065
S113050050E080E090E000E10E944603B22EC32E4A
S1130510D42EE52EF62E172FD82FE92F20E030E029
S11305204C2F5B2F60E070E08A2F9F2F0E945503B1
S1130530B32FA52FF72F2B29BC294D29AE296F29BD
S1130540F12BE92B30E050E070E08D2B90E008E0D7
S11305500E944603B22EC32ED42EE52EF62E172F5C
S1130560D82FC92F20E03B2F40E05A2F60E07F2F87
S113057080E09E2F0E9455032B293C294D295E299A
S11305806F29712B8D2B9C2BDF91CF911F910F9194
S1130590FF90EF90DF90CF90BF900895CF92DF92BD
S11305A0EF92FF920F931F93CF93DF93C82F8B018A
S11305B08AE090E00E9464037C018EE7F701808367
S11305C0F80126853785225F3F4FF7013283218367
S11305D080E18383C483F801C684D784FCE0CF0E12
S11305E0D11CC6010E946403C82FD92FA60160E064
S11305F070E08C2F0E94C304F80120813181428174
S1130600538164817581868197810E944F0228837A
S113061039834A835B836C837D838E839F83F80154
S11306208085918598278927982799878887828547
S11306308B8783858C879E01245F3F4F64857585F6
S113064046855785C9010E94BA04F701D087C7833C
S113065044818381480FF801868597850B96FE01B6
S113066002C02191420F9F012C1B3D0B821793075F
S1130670C4F74095F7014187C701DF91CF911F91DE
S11306800F91FF90EF90DF90CF9008950F930F7329
S113069051F0220F331F441F551F661F771F881FF9
S11306A0991F0A95B1F70F9108950F930F7351F0A5
S11306B09695879577956795579547953795279597
S11306C00A95B1F70F9108950F931F93CF93DF937A
S11306D08230910510F482E090E0E0919F00F09167
S11306E0A00020E030E0C0E0D0E023C04081518190
S11306F048175907A8F04817590761F48281938174
S1130700209719F09B838A832EC09093A000809336
S11307109F0029C02115310529F04217530710F015
S1130720A90102C0BE01DF0102811381EF019A0118
S1130730F8013097D9F62115310509F1281B390B39
S11307402430310590F412968D919C911397611584
S1130750710521F0FB019383828304C09093A00070
S113076080939F00FD01329644C0FD01E20FF31F08
S113077081939193225031092D933C933AC0209157
S11307809D0030919E00232B41F420916200309112
S1130790630030939E0020939D002091600030916F
S11307A061002115310541F42DB73EB74091640035
S11307B050916500241B350BE0919D00F0919E0043
S11307C0E217F307A0F42E1B3F0B2817390778F024
S11307D0AC014E5F5F4F2417350748F04E0F5F1F83
S11307E050939E0040939D008193919302C0E0E05A
S11307F0F0E0CF01DF91CF911F910F910895EF9217
S1130800FF920F931F93CF93DF93009709F48FC048
S1130810DC01129713961C921E921297E0909F008F
S1130820F090A000E114F10489F42D913C9111970A
S1130830280F391F80919D0090919E008217930785
S113084089F5B0939E00A0939D0071C0E70120E05C
S113085030E001C0EA01CA17DB0738F44A815B8142
S11308609E0141155105B1F722C0BC0162507109C6
S1130870FB01D383C28300811181AC01400F511F5E
S11308804C175D0761F448815981400F511F4E5F39
S11308905F4F518340834A815B8153834283211597
S11308A0310529F4B093A000A0939F0040C0F90142
S11308B0B383A283E90169917991C60FD71FAC175D
S11308C0BD0779F4DC015E914E91460F571F4E5FD0
S11308D05F4F5183408312968D919C91139793831C
S11308E08283A0E0B0E002C0D7017C01F7018281DD
S11308F093810097C9F7C701029620813181820F45
S1130900931F20919D0030919E002817390779F498
S1130910109729F41092A00010929F0004C013961F
S11309201C921E921297F0929E00E0929D00CDB709
S1130930DEB7E6E00C943E05A2E0B0E0E2EAF4E0C3
S11309400C942405BC01DC010D900020E9F7CD01D5
S1130950861B970B69837A830E9464038C016981E7
S11309607A81009711F00E94CA04C8012296E4E03B
S11309700C944005FB01DC0102C001900D92415032
S11309805040D8F70895DC0101C06D9341505040A8
S1130990E0F70895FB01DC0101900D920020E1F7DE
S11309A00895FB019F01E8944230C4F04532B4F449
S11309B04A3029F497FB1EF4909581959F4F642F3C
S11309C077270E940205805D8A330CF0895D81934C
S11309D0CB010097A1F716F45DE251931082C9018F
S11309E00C94F204DC01FC01672F71917723E1F789
S11309F0329704C07C916D9370836291AE17BF07E8
S1130A00C8F30895AA1BBB1B51E107C0AA1FBB1F53
S1130A10A617B70710F0A61BB70B881F991F5A9586
S1130A20A9F780959095BC01CD0108952F923F922E
S1130A304F925F926F927F928F929F92AF92BF92EA
S1130A40CF92DF92EF92FF920F931F93CF93DF9396
S1130A50CDB7DEB7CA1BDB0B0FB6F894DEBF0FBEF3
S1130A60CDBF09942A88398848885F846E847D8440
S1130A708C849B84AA84B984C884DF80EE80FD8042
S1130A800C811B81AA81B981CE0FD11D0FB6F894B8
S1110A90DEBF0FBECDBFED010895F894FFCF79
S1090A9E0000A10020008D
S9030000FC
